{
  "contractName": "Ticket",
  "abi": [
    {
      "inputs": [
        {
          "internalType": "uint256",
          "name": "_nbrTicket",
          "type": "uint256"
        },
        {
          "internalType": "uint256",
          "name": "_prix",
          "type": "uint256"
        },
        {
          "internalType": "string",
          "name": "_nomEvenement",
          "type": "string"
        },
        {
          "internalType": "uint256",
          "name": "_dateEvenement",
          "type": "uint256"
        }
      ],
      "stateMutability": "nonpayable",
      "type": "constructor"
    },
    {
      "inputs": [
        {
          "internalType": "address",
          "name": "",
          "type": "address"
        }
      ],
      "name": "acheteurs",
      "outputs": [
        {
          "internalType": "uint256",
          "name": "id",
          "type": "uint256"
        },
        {
          "internalType": "uint256",
          "name": "dateAchat",
          "type": "uint256"
        },
        {
          "internalType": "address",
          "name": "acheteur",
          "type": "address"
        },
        {
          "internalType": "uint256",
          "name": "prix",
          "type": "uint256"
        },
        {
          "internalType": "bool",
          "name": "enVente",
          "type": "bool"
        }
      ],
      "stateMutability": "view",
      "type": "function",
      "constant": true
    },
    {
      "inputs": [],
      "name": "dateEvenement",
      "outputs": [
        {
          "internalType": "uint256",
          "name": "",
          "type": "uint256"
        }
      ],
      "stateMutability": "view",
      "type": "function",
      "constant": true
    },
    {
      "inputs": [],
      "name": "nbrTicket",
      "outputs": [
        {
          "internalType": "uint256",
          "name": "",
          "type": "uint256"
        }
      ],
      "stateMutability": "view",
      "type": "function",
      "constant": true
    },
    {
      "inputs": [],
      "name": "nomEvenement",
      "outputs": [
        {
          "internalType": "string",
          "name": "",
          "type": "string"
        }
      ],
      "stateMutability": "view",
      "type": "function",
      "constant": true
    },
    {
      "inputs": [
        {
          "internalType": "uint256",
          "name": "",
          "type": "uint256"
        }
      ],
      "name": "tickets",
      "outputs": [
        {
          "internalType": "uint256",
          "name": "id",
          "type": "uint256"
        },
        {
          "internalType": "uint256",
          "name": "dateAchat",
          "type": "uint256"
        },
        {
          "internalType": "address",
          "name": "acheteur",
          "type": "address"
        },
        {
          "internalType": "uint256",
          "name": "prix",
          "type": "uint256"
        },
        {
          "internalType": "bool",
          "name": "enVente",
          "type": "bool"
        }
      ],
      "stateMutability": "view",
      "type": "function",
      "constant": true
    },
    {
      "inputs": [
        {
          "internalType": "bool",
          "name": "_enVente",
          "type": "bool"
        },
        {
          "internalType": "uint256",
          "name": "_price",
          "type": "uint256"
        }
      ],
      "name": "vendre",
      "outputs": [],
      "stateMutability": "nonpayable",
      "type": "function"
    },
    {
      "inputs": [
        {
          "internalType": "uint256",
          "name": "_idTicket",
          "type": "uint256"
        }
      ],
      "name": "acheter",
      "outputs": [],
      "stateMutability": "payable",
      "type": "function",
      "payable": true
    },
    {
      "inputs": [],
      "name": "recolter",
      "outputs": [],
      "stateMutability": "nonpayable",
      "type": "function"
    }
  ],
  "bytecode": "0x60806040523480156200001157600080fd5b506040516200176a3803806200176a833981810160405281019062000037919062000474565b33600260006101000a81548173ffffffffffffffffffffffffffffffffffffffff021916908373ffffffffffffffffffffffffffffffffffffffff16021790555083600081905550816003908051906020019062000097929190620001ec565b50806004819055506000600190505b6000548111620001e15760006040518060a0016040528083815260200160008152602001600260009054906101000a900473ffffffffffffffffffffffffffffffffffffffff1673ffffffffffffffffffffffffffffffffffffffff1681526020018681526020016001151581525090506001819080600181540180825580915050600190039060005260206000209060050201600090919091909150600082015181600001556020820151816001015560408201518160020160006101000a81548173ffffffffffffffffffffffffffffffffffffffff021916908373ffffffffffffffffffffffffffffffffffffffff1602179055506060820151816003015560808201518160040160006101000a81548160ff0219169083151502179055505050508080620001d89062000534565b915050620000a6565b5050505050620005e7565b828054620001fa90620005b1565b90600052602060002090601f0160209004810192826200021e57600085556200026a565b82601f106200023957805160ff19168380011785556200026a565b828001600101855582156200026a579182015b82811115620002695782518255916020019190600101906200024c565b5b5090506200027991906200027d565b5090565b5b80821115620002985760008160009055506001016200027e565b5090565b6000604051905090565b600080fd5b600080fd5b6000819050919050565b620002c581620002b0565b8114620002d157600080fd5b50565b600081519050620002e581620002ba565b92915050565b600080fd5b600080fd5b6000601f19601f8301169050919050565b7f4e487b7100000000000000000000000000000000000000000000000000000000600052604160045260246000fd5b6200034082620002f5565b810181811067ffffffffffffffff8211171562000362576200036162000306565b5b80604052505050565b6000620003776200029c565b905062000385828262000335565b919050565b600067ffffffffffffffff821115620003a857620003a762000306565b5b620003b382620002f5565b9050602081019050919050565b60005b83811015620003e0578082015181840152602081019050620003c3565b83811115620003f0576000848401525b50505050565b60006200040d62000407846200038a565b6200036b565b9050828152602081018484840111156200042c576200042b620002f0565b5b62000439848285620003c0565b509392505050565b600082601f830112620004595762000458620002eb565b5b81516200046b848260208601620003f6565b91505092915050565b60008060008060808587031215620004915762000490620002a6565b5b6000620004a187828801620002d4565b9450506020620004b487828801620002d4565b935050604085015167ffffffffffffffff811115620004d857620004d7620002ab565b5b620004e68782880162000441565b9250506060620004f987828801620002d4565b91505092959194509250565b7f4e487b7100000000000000000000000000000000000000000000000000000000600052601160045260246000fd5b60006200054182620002b0565b91507fffffffffffffffffffffffffffffffffffffffffffffffffffffffffffffffff82141562000577576200057662000505565b5b600182019050919050565b7f4e487b7100000000000000000000000000000000000000000000000000000000600052602260045260246000fd5b60006002820490506001821680620005ca57607f821691505b60208210811415620005e157620005e062000582565b5b50919050565b61117380620005f76000396000f3fe60806040526004361061007b5760003560e01c8063d3bf14131161004e578063d3bf141314610142578063d999e0f91461016b578063e611ef0814610187578063f443316f1461019e5761007b565b806350b4471214610080578063517a0569146100c157806361b42242146100ec578063bc1c23af14610117575b600080fd5b34801561008c57600080fd5b506100a760048036038101906100a29190610a82565b6101df565b6040516100b8959493929190610b1a565b60405180910390f35b3480156100cd57600080fd5b506100d6610252565b6040516100e39190610b6d565b60405180910390f35b3480156100f857600080fd5b50610101610258565b60405161010e9190610c21565b60405180910390f35b34801561012357600080fd5b5061012c6102e6565b6040516101399190610b6d565b60405180910390f35b34801561014e57600080fd5b5061016960048036038101906101649190610c6f565b6102ec565b005b61018560048036038101906101809190610a82565b6104a4565b005b34801561019357600080fd5b5061019c6108e3565b005b3480156101aa57600080fd5b506101c560048036038101906101c09190610cdb565b6109e4565b6040516101d6959493929190610b1a565b60405180910390f35b600181815481106101ef57600080fd5b90600052602060002090600502016000915090508060000154908060010154908060020160009054906101000a900473ffffffffffffffffffffffffffffffffffffffff16908060030154908060040160009054906101000a900460ff16905085565b60005481565b6003805461026590610d37565b80601f016020809104026020016040519081016040528092919081815260200182805461029190610d37565b80156102de5780601f106102b3576101008083540402835291602001916102de565b820191906000526020600020905b8154815290600101906020018083116102c157829003601f168201915b505050505081565b60045481565b6000600560003373ffffffffffffffffffffffffffffffffffffffff1673ffffffffffffffffffffffffffffffffffffffff1681526020019081526020016000209050600081600101541480156103b55750600260009054906101000a900473ffffffffffffffffffffffffffffffffffffffff1673ffffffffffffffffffffffffffffffffffffffff168160020160009054906101000a900473ffffffffffffffffffffffffffffffffffffffff1673ffffffffffffffffffffffffffffffffffffffff1614155b156103f5576040517f08c379a00000000000000000000000000000000000000000000000000000000081526004016103ec90610db5565b60405180910390fd5b828160040160006101000a81548160ff02191690831515021790555081816003018190555082600180836000015461042d9190610e04565b8154811061043e5761043d610e38565b5b906000526020600020906005020160040160006101000a81548160ff0219169083151502179055508160018083600001546104799190610e04565b8154811061048a57610489610e38565b5b906000526020600020906005020160030181905550505050565b6000548111156104e9576040517f08c379a00000000000000000000000000000000000000000000000000000000081526004016104e090610eb3565b60405180910390fd5b6000600560003373ffffffffffffffffffffffffffffffffffffffff1673ffffffffffffffffffffffffffffffffffffffff168152602001908152602001600020600101541461056e576040517f08c379a000000000000000000000000000000000000000000000000000000000815260040161056590610f1f565b60405180910390fd5b60006001808361057e9190610e04565b8154811061058f5761058e610e38565b5b90600052602060002090600502019050600015158160040160009054906101000a900460ff16151514156105f8576040517f08c379a00000000000000000000000000000000000000000000000000000000081526004016105ef90610f8b565b60405180910390fd5b348160030154111561063f576040517f08c379a000000000000000000000000000000000000000000000000000000000815260040161063690610ff7565b60405180910390fd5b42816001018190555060008160040160006101000a81548160ff021916908315150217905550600060646063346106769190611017565b61068091906110a0565b90508160020160009054906101000a900473ffffffffffffffffffffffffffffffffffffffff1673ffffffffffffffffffffffffffffffffffffffff166108fc829081150290604051600060405180830381858888f193505050501580156106ec573d6000803e3d6000fd5b50600560008360020160009054906101000a900473ffffffffffffffffffffffffffffffffffffffff1673ffffffffffffffffffffffffffffffffffffffff1673ffffffffffffffffffffffffffffffffffffffff16815260200190815260200160002060008082016000905560018201600090556002820160006101000a81549073ffffffffffffffffffffffffffffffffffffffff021916905560038201600090556004820160006101000a81549060ff02191690555050338260020160006101000a81548173ffffffffffffffffffffffffffffffffffffffff021916908373ffffffffffffffffffffffffffffffffffffffff16021790555081600560003373ffffffffffffffffffffffffffffffffffffffff1673ffffffffffffffffffffffffffffffffffffffff16815260200190815260200160002060008201548160000155600182015481600101556002820160009054906101000a900473ffffffffffffffffffffffffffffffffffffffff168160020160006101000a81548173ffffffffffffffffffffffffffffffffffffffff021916908373ffffffffffffffffffffffffffffffffffffffff160217905550600382015481600301556004820160009054906101000a900460ff168160040160006101000a81548160ff021916908315150217905550905050505050565b600260009054906101000a900473ffffffffffffffffffffffffffffffffffffffff1673ffffffffffffffffffffffffffffffffffffffff163373ffffffffffffffffffffffffffffffffffffffff1614610973576040517f08c379a000000000000000000000000000000000000000000000000000000000815260040161096a9061111d565b60405180910390fd5b6000479050600260009054906101000a900473ffffffffffffffffffffffffffffffffffffffff1673ffffffffffffffffffffffffffffffffffffffff166108fc829081150290604051600060405180830381858888f193505050501580156109e0573d6000803e3d6000fd5b5050565b60056020528060005260406000206000915090508060000154908060010154908060020160009054906101000a900473ffffffffffffffffffffffffffffffffffffffff16908060030154908060040160009054906101000a900460ff16905085565b600080fd5b6000819050919050565b610a5f81610a4c565b8114610a6a57600080fd5b50565b600081359050610a7c81610a56565b92915050565b600060208284031215610a9857610a97610a47565b5b6000610aa684828501610a6d565b91505092915050565b610ab881610a4c565b82525050565b600073ffffffffffffffffffffffffffffffffffffffff82169050919050565b6000610ae982610abe565b9050919050565b610af981610ade565b82525050565b60008115159050919050565b610b1481610aff565b82525050565b600060a082019050610b2f6000830188610aaf565b610b3c6020830187610aaf565b610b496040830186610af0565b610b566060830185610aaf565b610b636080830184610b0b565b9695505050505050565b6000602082019050610b826000830184610aaf565b92915050565b600081519050919050565b600082825260208201905092915050565b60005b83811015610bc2578082015181840152602081019050610ba7565b83811115610bd1576000848401525b50505050565b6000601f19601f8301169050919050565b6000610bf382610b88565b610bfd8185610b93565b9350610c0d818560208601610ba4565b610c1681610bd7565b840191505092915050565b60006020820190508181036000830152610c3b8184610be8565b905092915050565b610c4c81610aff565b8114610c5757600080fd5b50565b600081359050610c6981610c43565b92915050565b60008060408385031215610c8657610c85610a47565b5b6000610c9485828601610c5a565b9250506020610ca585828601610a6d565b9150509250929050565b610cb881610ade565b8114610cc357600080fd5b50565b600081359050610cd581610caf565b92915050565b600060208284031215610cf157610cf0610a47565b5b6000610cff84828501610cc6565b91505092915050565b7f4e487b7100000000000000000000000000000000000000000000000000000000600052602260045260246000fd5b60006002820490506001821680610d4f57607f821691505b60208210811415610d6357610d62610d08565b5b50919050565b7f796f7520646f6e2074206861766520616e79207469636b657400000000000000600082015250565b6000610d9f601983610b93565b9150610daa82610d69565b602082019050919050565b60006020820190508181036000830152610dce81610d92565b9050919050565b7f4e487b7100000000000000000000000000000000000000000000000000000000600052601160045260246000fd5b6000610e0f82610a4c565b9150610e1a83610a4c565b925082821015610e2d57610e2c610dd5565b5b828203905092915050565b7f4e487b7100000000000000000000000000000000000000000000000000000000600052603260045260246000fd5b7f696420646f65736e207420657869737400000000000000000000000000000000600082015250565b6000610e9d601083610b93565b9150610ea882610e67565b602082019050919050565b60006020820190508181036000830152610ecc81610e90565b9050919050565b7f796f752063616e207420627579206d6f7265207468616e2031207469636b6574600082015250565b6000610f09602083610b93565b9150610f1482610ed3565b602082019050919050565b60006020820190508181036000830152610f3881610efc565b9050919050565b7f74686973207469636b6574206973206e6f7420666f722073656c6c0000000000600082015250565b6000610f75601b83610b93565b9150610f8082610f3f565b602082019050919050565b60006020820190508181036000830152610fa481610f68565b9050919050565b7f6e6f7420656e6f75676820657468657265756d00000000000000000000000000600082015250565b6000610fe1601383610b93565b9150610fec82610fab565b602082019050919050565b6000602082019050818103600083015261101081610fd4565b9050919050565b600061102282610a4c565b915061102d83610a4c565b9250817fffffffffffffffffffffffffffffffffffffffffffffffffffffffffffffffff048311821515161561106657611065610dd5565b5b828202905092915050565b7f4e487b7100000000000000000000000000000000000000000000000000000000600052601260045260246000fd5b60006110ab82610a4c565b91506110b683610a4c565b9250826110c6576110c5611071565b5b828204905092915050565b7f752072206e6f7420746865206f776e6572000000000000000000000000000000600082015250565b6000611107601183610b93565b9150611112826110d1565b602082019050919050565b60006020820190508181036000830152611136816110fa565b905091905056fea26469706673582212201ec9f32e0ee09ccec96c6049a8900023c68f7fcae57aa175ae1091df1124eb2364736f6c63430008080033",
  "immutableReferences": {},
  "source": "//SPDX-License-Identifier: MIT\n\npragma solidity ^0.8.8;\n\nstruct TicketStr{\n    uint256 id ;\n    uint256 dateAchat;\n    address acheteur;\n    uint256 prix;\n    bool enVente;\n    //https://meet.google.com/qut-jhfw-onh\n}\ncontract Ticket{\n    uint256 public nbrTicket;\n    TicketStr[] public tickets;\n    address private proprietaire;\n    string public nomEvenement;\n    uint256 public dateEvenement;\n    mapping( address => TicketStr ) public acheteurs;\n\n    constructor(uint256 _nbrTicket,uint256 _prix, \n    string memory _nomEvenement, uint256 _dateEvenement   ){\n            proprietaire= msg.sender;\n            nbrTicket=_nbrTicket;\n            nomEvenement=_nomEvenement;\n            dateEvenement=_dateEvenement;\n            for(uint256 i=1;i<=nbrTicket;i++)\n            {\n                TicketStr memory ticket=TicketStr(i,0,proprietaire,_prix,true);\n                tickets.push(ticket);\n            }\n    }\n\n    function vendre(bool _enVente,uint256 _price) external{\n         TicketStr storage ticket=   acheteurs[msg.sender];\n        \n        if(ticket.dateAchat==0 && ticket.acheteur!=proprietaire)\n            revert('you don t have any ticket');\n        \n        ticket.enVente=_enVente;\n        ticket.prix=_price;\n        tickets[ticket.id-1].enVente=_enVente;\n        tickets[ticket.id-1].prix=_price;\n    }\n\n    \n\n\n\n\n\n    function acheter(uint256 _idTicket) public payable{\n      \n       /*   if(msg.value<prix)\n            revert('not enough ethereum');\n        if(acheteurs[msg.sender].dateAchat!=0)\n            revert('you can t buy more than 1 ticket');\n*/\n        if(_idTicket>nbrTicket)\n            revert('id doesn t exist');\n\n        if(acheteurs[msg.sender].dateAchat!=0) // 1 ticket per address\n            revert('you can t buy more than 1 ticket');\n\n        TicketStr storage ticket = tickets[_idTicket-1];\n\n        if(ticket.enVente==false)\n           revert('this ticket is not for sell'); \n\n        if(ticket.prix>msg.value)\n            revert('not enough ethereum'); \n\n        ticket.dateAchat=block.timestamp;\n        ticket.enVente=false;\n        uint256 balance = msg.value*99/100;//commision de 1%\n        payable(ticket.acheteur).transfer(balance);\n        delete acheteurs[ticket.acheteur];\n        ticket.acheteur=msg.sender;\n        acheteurs[msg.sender]=ticket;\n        \n\n    }\n    function recolter() external{\n        if(msg.sender!=proprietaire)\n            revert(\"u r not the owner\");\n       // address(0x617F2E2fD72FD9D5503197092aC168c91465E7f2).balance;\n        uint256 balance = address(this).balance;\n        payable(proprietaire).transfer(balance);\n    }\n}",
  "sourcePath": "C:\\Users\\Admin\\Downloads\\blockchain-ppts-master\\projects\\demo\\contracts\\Ticket.sol",
  "compiler": {
    "name": "solc",
    "version": "0.8.8+commit.dddeac2f.Emscripten.clang"
  },
  "schemaVersion": "3.4.14",
  "updatedAt": "2023-06-05T18:29:23.224Z",
  "networkType": "ethereum",
  "devdoc": {
    "kind": "dev",
    "methods": {},
    "version": 1
  },
  "userdoc": {
    "kind": "user",
    "methods": {},
    "version": 1
  }
}